S00D00004170705F35302E73313902
S113000000600020D500000043010000290B00001F
S113001000000000000000000000000000000000DC
S11300200000000000000000000000004701000084
S11300300000000000000000490100004B01000026
S11300404F010000570100005F010000670100003C
S11300506F010000770100007F01000087010000AC
S11300608F010000970100009F010000A70100001C
S1130070950B0000B7010000BF010000B9070000A4
S1130080CF010000D7010000DF010000E7010000FC
S1130090EF010000F7010000FF010000070200006B
S11300A00F020000170200001F02000027020000D8
S11300B02F02000037020000250A0000810A000018
S11300C08432000080E0FF1F0800000088E0FF1F6A
S11300D0D401000010B572B600F0F0FE0D4B07E03D
S11300E0186859681C000C349A6800F019F8230049
S11300F0094A9342F4D306E018681C00083459688E
S113010000F017F82300054A9342F5D362B602F0D3
S11301107FFFFEE7C0000000CC000000D400000018
S113012010B5002302E010C810C104339342FAD37F
S113013010BD002302E0002204C004338B42FAD332
S11301407047FEE7FEE7FEE7FEE7FEE7FEE710B5D1
S1130150FFF7FCFF10BD10B5FFF7F8FF10BD10B599
S1130160FFF7F4FF10BD10B5FFF7F0FF10BD10B599
S1130170FFF7ECFF10BD10B5FFF7E8FF10BD10B599
S1130180FFF7E4FF10BD10B5FFF7E0FF10BD10B599
S1130190FFF7DCFF10BD10B5FFF7D8FF10BD10B599
S11301A0FFF7D4FF10BD10B5FFF7D0FF10BD10B599
S11301B0FFF7CCFF10BD10B5FFF7C8FF10BD10B599
S11301C0FFF7C4FF10BD10B5FFF7C0FF10BD10B599
S11301D0FFF7BCFF10BD10B5FFF7B8FF10BD10B599
S11301E0FFF7B4FF10BD10B5FFF7B0FF10BD10B599
S11301F0FFF7ACFF10BD10B5FFF7A8FF10BD10B599
S1130200FFF7A4FF10BD10B5FFF7A0FF10BD10B598
S1130210FFF79CFF10BD10B5FFF798FF10BD10B598
S1130220FFF794FF10BD10B5FFF790FF10BD10B598
S1130230FFF78CFF10BD10B5FFF788FF10BD10B598
S1130240FFF784FF10BD10B5FFF780FF10BDFFFF5F
S1130250FFFFFFFFFFFFFFFFFFFFFFFFFFFFFFFFAA
S1130260FFFFFFFFFFFFFFFFFFFFFFFFFFFFFFFF9A
S1130270FFFFFFFFFFFFFFFFFFFFFFFFFFFFFFFF8A
S1130280FFFFFFFFFFFFFFFFFFFFFFFFFFFFFFFF7A
S1130290FFFFFFFFFFFFFFFFFFFFFFFFFFFFFFFF6A
S11302A0FFFFFFFFFFFFFFFFFFFFFFFFFFFFFFFF5A
S11302B0FFFFFFFFFFFFFFFFFFFFFFFFFFFFFFFF4A
S11302C0FFFFFFFFFFFFFFFFFFFFFFFFFFFFFFFF3A
S11302D0FFFFFFFFFFFFFFFFFFFFFFFFFFFFFFFF2A
S11302E0FFFFFFFFFFFFFFFFFFFFFFFFFFFFFFFF1A
S11302F0FFFFFFFFFFFFFFFFFFFFFFFFFFFFFFFF0A
S1130300FFFFFFFFFFFFFFFFFFFFFFFFFFFFFFFFF9
S1130310FFFFFFFFFFFFFFFFFFFFFFFFFFFFFFFFE9
S1130320FFFFFFFFFFFFFFFFFFFFFFFFFFFFFFFFD9
S1130330FFFFFFFFFFFFFFFFFFFFFFFFFFFFFFFFC9
S1130340FFFFFFFFFFFFFFFFFFFFFFFFFFFFFFFFB9
S1130350FFFFFFFFFFFFFFFFFFFFFFFFFFFFFFFFA9
S1130360FFFFFFFFFFFFFFFFFFFFFFFFFFFFFFFF99
S1130370FFFFFFFFFFFFFFFFFFFFFFFFFFFFFFFF89
S1130380FFFFFFFFFFFFFFFFFFFFFFFFFFFFFFFF79
S1130390FFFFFFFFFFFFFFFFFFFFFFFFFFFFFFFF69
S11303A0FFFFFFFFFFFFFFFFFFFFFFFFFFFFFFFF59
S11303B0FFFFFFFFFFFFFFFFFFFFFFFFFFFFFFFF49
S11303C0FFFFFFFFFFFFFFFFFFFFFFFFFFFFFFFF39
S11303D0FFFFFFFFFFFFFFFFFFFFFFFFFFFFFFFF29
S11303E0FFFFFFFFFFFFFFFFFFFFFFFFFFFFFFFF19
S11303F0FFFFFFFFFFFFFFFFFFFFFFFFFFFFFFFF09
S1130400FFFFFFFFFFFFFFFFFFFFFFFFFEFFFFFFF9
S1130410B0B592B000AF00F0ABF8494B1B781A00AE
S113042048493B1D180001F07FFD3B1D00220021BF
S1130430180002F0AEFD444B1A6880235B0213409F
S11304404DD0424B1A220021180002F03AFC3E25FE
S11304507C193E4B1A220021180000F089F9030090
S113046023807B1900229B5E180002F069FE031CA6
S11304703749181C02F066F9031C3649181C02F0AF
S1130480F9F8031CBB6300237B640BE07B6C5A1CF0
S1130490314B9200D158304B7A6C9200D1507B6C26
S11304A001337B647B6C082BF0D92C4B191CB86B83
S11304B002F0BAF9031C1A1C294B191C101C02F077
S11304C041F9031C191C274802F0AEF9031C1A1C3D
S11304D0214B5A62244B0521180002F098FC00F0CD
S11304E069FC031EA7D000F0B5FC03001A003721F5
S11304F07B181A70124B1B787A1812789A429AD188
S113050000233B6415E0144B3A6C9200D358181C3A
S113051002F076FA02000B001449381D01F004FDC4
S11305203B1D00220021180002F033FD3B6C013317
S11305303B643B6C092BE6D90A2000F045FC7AE7C2
S113054084E0FF1F0C32000010E000E000B0034024
S113055000FE7F4700404E4588E0FF1F0000334403
S1130560295CCF3F0000C841C0F00F402432000096
S113057090B589B000AF00F051F81C217B1800221F
S11305801A607B1801221A707B1820481A00052172
S113059000F0F6F918217B1801221A707B1800224A
S11305A05A707B181A481A00052102F0E1FB142145
S11305B07B1800221A607B1802221A707B18012211
S11305C05A700C007B1813481A00012100F0D8F966
S11305D03B1910481A00022100F0D2F900F05EFB2A
S11305E03B1D180010231A00002102F017FD3B1DCB
S11305F00322DA713B1D084A1900100002F019FBAE
S113060000F072F8C046BD4609B090BD00C0044079
S1130610C0F00F400090044000B0034080B500AF2C
S11306202C4B1B78DBB22B4A3F210B40DBB21370FF
S1130630284B1B78DBB2274A40210B43DBB21370F3
S1130640244B5B78DBB2234A01218B43DBB253702A
S1130650204B5B78DBB21F4A01210B43DBB25370A2
S11306601C4B1B7ADBB21B4A0E218B43DBB2137289
S1130670184A184B127AD2B21A72174A174BD35827
S113068015491B011B09154A8B50134A134BD358A8
S11306901149C02292051343104A8B500E4A0F4B46
S11306A0D3580D490E4A13400C4A8B500A4A0A4942
S11306B00A4BD358094A8B5000F00EFC064A094BEA
S11306C0D3580549802212051343064A8B50C0466D
S11306D0BD4680BD00400640007004404410000048
S11306E0FFFFF8FF3C10000080B500AF0A4B0B4A37
S11306F05A60094B00229A60074B1A68064B042182
S11307000A431A60044B1A68034B01210A431A6016
S1130710C046BD4680BDC04610E000E03F420F0029
S113072080B582B000AF0200FB1D1A70FB1D1B7860
S11307307F2B09D8FB1D1B781A001F231A40044B7A
S1130740012191400A001A60C046BD4602B080BD36
S113075000E100E080B582B000AF7860034B7A68B6
S11307601A60C046BD4602B080BDC046B0E0FF1F5F
S113077080B582B000AF786008001100FB1C021C39
S11307801A70BB1C0A1C1A70C046FB1C1A787B68C2
S11307901100180002F00BFA031EF6D0054AFB1CE8
S11307A01B7804339B009B581BB21800BD4602B053
S11307B080BDC04600B0034080B500AF044B1B6849
S11307C0002B02D0024B1B689847C046BD4680BD33
S11307D0B0E0FF1F80B582B000AF0200FB1D1A70AD
S11307E0FB1D1B787F2B09D8FB1D1B781A001F23C8
S11307F01A40044B012191400A001A60C046BD46CC
S113080002B080BD00E100E080B582B000AF786046
S11308107B68244A934209D1234A244BD358224962
S1130820802292001343214A8B5036E07B68204A91
S1130830934209D11C4A1D4BD3581B498022D20034
S113084013431A4A8B5028E07B681A4A934209D111
S1130850154A164BD3581449802212011343134AE4
S11308608B501AE07B68144A934209D10E4A0F4B0D
S1130870D3580D498022520113430C4A8B500CE08B
S11308807B680E4A934208D1074A084BD35806495D
S1130890802292011343054A8B50C046BD4602B0E4
S11308A080BDC04600900440007004403810000031
S11308B000A0044000B0044000C0044000D0044044
S11308C080B582B000AF786008001100FB1C021CE8
S11308D01A70BB1C0A1C1A70FB1C1A787B689200E5
S11308E0D358FA1C12780D4919407B689200D150F4
S11308F0FB1C1A787B689200D158BB1C1B781A0227
S1130900E023DB001340FA1C127819437B68920041
S1130910D150C046BD4602B080BDC046FFF8FFFFBF
S113092080B582B000AF786008001100FB1C021C87
S11309301A70BB1C0A1C1A70FB1C1A787B68920084
S1130940D358FA1C12780D4919407B689200D15093
S1130950FB1C1A787B689200D158BB1C1B781A04C4
S1130960F0231B031340FA1C127819437B6892008E
S1130970D150C046BD4602B080BDC046FFFFF0FF67
S113098090B585B000AFF8607A600B243B190A1C5F
S11309901A70FB681800FFF737FF7B681A783B1959
S11309A01978FB681800FFF78BFF7B685A783B19AE
S11309B01978FB68180002F03FFA7B689A783B19B3
S11309C01978FB68180002F087FA7B681B78002B03
S11309D007D07B68DA783B191978FB681800FFF7B1
S11309E09FFF7B68DB78002B11D0FB680A4A934297
S11309F002D11E20FFF7EEFEFB68084A934203D0A3
S1130A00FB68074A934202D11F20FFF7E3FEC0466A
S1130A10BD4605B090BDC0460090044000B00440FF
S1130A2000C0044080B582B000AF00237B601BE0AF
S1130A307B68DBB2104A1900100002F07AFA031E38
S1130A400FD07B68DBB20C4A1900100002F089FA5F
S1130A500A4B1B68002B04D0084B1B687A681000F3
S1130A6098477B6801337B607B681F2BE0DDC046C1
S1130A70C046BD4602B080BD00900440B4E0FF1FF4
S1130A8080B582B000AF00237B601BE07B68DBB2E3
S1130A90214A1900100002F04CFA031E0FD07B68A3
S1130AA0DBB21D4A1900100002F05BFA1B4B1B68F5
S1130AB0002B04D0194B1B687A68100098477B6898
S1130AC001337B607B681F2BE0DD00233B601BE070
S1130AD03B68DBB2124A1900100002F02AFA031E26
S1130AE00FD03B68DBB20E4A1900100002F039FA4D
S1130AF00C4B1B68002B04D00A4B1B683A6810008F
S1130B0098473B6801333B603B681F2BE0DDC046E0
S1130B10C046BD4602B080BD00B00440B8E0FF1F2F
S1130B2000C00440BCE0FF1F04207146084202D00C
S1130B30EFF3098001E0EFF3088081690A88074B2D
S1130B409A4200D0FEE7023181610168012901D097
S1130B50002100E0202101607047C046ABBE0000C8
S1130B6080B582B000AF0200FB1D1A70FB1D1B781C
S1130B707F2B09D8FB1D1B781A001F231A40044B36
S1130B80012191400A001A60C046BD4602B080BDF2
S1130B9000E100E080B500AF3C4B1B79DBB21A00EA
S1130BA02023134036D03A4B68229B5A642B0BD136
S1130BB0384B01221A70354BDB78DBB2334A2021E3
S1130BC08B43DBB2D37025E0304A314B64215B5A4E
S1130BD01900D379DAB22E4B5A542D4B64229B5A06
S1130BE0013399B22A4B64229952294B64229B5AAD
S1130BF0632B07D9264B64229B5A643B99B2244B3E
S1130C0064229952224B68229B5A013399B2204B99
S1130C10682299521D4B1B79DBB25BB2002B32DA8E
S1130C201D4B68229B5A002B08D1184BDB78DBB292
S1130C30164A7F210B40DBB2D37024E0164B6622A8
S1130C409B5A1900114A144B5B5CD371124B6622F8
S1130C509B5A013399B2104B662299520E4B66226D
S1130C609B5A632B07D90C4B66229B5A643B99B25F
S1130C70094B66229952084B68229B5A013B99B250
S1130C80054B68229952C046BD4680BD00A006406F
S1130C90C0E0FF1F58E2FF1F2CE1FF1F80B500AF2B
S1130CA03E4B5B78DBB23D4A01210B43DBB2537010
S1130CB03A4B1B78DBB2394A02210B43DBB2137087
S1130CC0364B1B7ADBB2354A0E218B43DBB21372EF
S1130CD0334A344BD35832498022D2001343314A29
S1130CE08B502F4A304BD3582D49304A13402E4A4B
S1130CF08B502B4A2C4BD3582949C022120513433D
S1130D00294A8B502A4B1B78DBB2294A1F210B40FE
S1130D10DBB21370264B05225A70254B9B7ADBB24B
S1130D201F229343DBB2224A06210B43DBB29372A8
S1130D301F4B9B78DBB21E4A02218B43DBB29370BC
S1130D401B4B9B78DBB21A4A01218B43DBB29370B5
S1130D50174B1B78DBB2164A20210B40DBB2137011
S1130D60134BDB78DBB2124A04210B43DBB2D370A2
S1130D700F4BDB78DBB20E4A08210B43DBB2D37096
S1130D800B4BDB78DBB20A4A20210B43DBB2D37076
S1130D900C20FFF7E5FEC046BD4680BD004006407E
S1130DA0007004403410000004100000FFFFFFF343
S1130DB000A0064080B500AF024B68229B5A180081
S1130DC0BD4680BDC0E0FF1F80B584B000AF020007
S1130DD0FB1D1A700F23FB1800221A701B4B68228C
S1130DE09B5A632B26D8194B64229B5A1900174B24
S1130DF0FA1D12785A54154B64229B5A013364210C
S1130E00180002F033F90B0099B2104B6422995286
S1130E100E4B68229B5A013399B20C4B68229952AB
S1130E200B4BDB78DBB20A49802252421343DBB21C
S1130E30CB7003E00F23FB18FF221A700F23FB185B
S1130E401B781800BD4604B080BDC0462CE1FF1FCE
S1130E5000A0064080B582B000AF174B68229B5AB1
S1130E60002B04D1BB1D012252421A801CE0124BFC
S1130E7066229B5A1A00104B9A5CBB1D1A800E4BBB
S1130E8066229B5A01336421180002F0EFF80B002C
S1130E9099B2094B66229952074B68229B5A013B2F
S1130EA099B2054B68229952BB1D00229B5E180023
S1130EB0BD4602B080BDC046C0E0FF1F80B500AF94
S1130EC0044A88235B010021D15002F09CF8C046FB
S1130ED0BD4680BD0070044080B582B000AF894B30
S1130EE01B78DBB21A00C023134000D0C3E0854B4B
S1130EF05B79DBB21A004023134000D099E0814BA8
S1130F001B78DBB21A00042313403AD17E4B7B607A
S1130F107C4B5B78DBB21A00302313401ED0794B34
S1130F201B78DBB21A0038231340302B06D0382B41
S1130F3009D1BB1CC022D2001A8019E0BB1CA0221C
S1130F40D2001A8014E06F4B1B78DBB2DB08072257
S1130F50134020229A40BB1C1A8009E0694B1B787D
S1130F60DBB2DB080722134001229A40BB1C1A8023
S1130F70BB1C1B881900786802F078F803007B60BA
S1130F8002E080231B027B605E4BDB78DBB21A003D
S1130F90E0231340E02B47D000D99DE0C02B3ED086
S1130FA000D999E0A02B34D000D995E0802B2AD029
S1130FB000D991E0602B1FD000D98DE0402B14D0D4
S1130FC000D989E0002B02D0202B07D084E07A6876
S1130FD013009B009B18DB017B607EE07A681300A2
S1130FE09B009B181B027B6077E07A6813001B014F
S1130FF09B1ADB017B6070E07A6813009B009B18EE
S11310005B027B6069E07B68B722920053437B609C
S113101063E07B68B722D20053437B605DE07B686A
S11310203A4A53437B6058E07B68394A53437B60B8
S113103053E0344B1B79DBB21A001F2313409AB2DE
S1131040BB1C01321A80BB1C1B8819002E4802F0FD
S11310500DF803007B602B4B5B79DBB21A001F2376
S113106013409AB2BB1C18321A80BB1C1A887B68C6
S113107053437B6031E0234B1B78DBB21A00C0235F
S11310801340402B1DD11F4B5B78DBB21A000123A8
S1131090134003D180231B027B601EE0194B1B7A93
S11310A0DBB25B080722134001229A40BB1C1A8062
S11310B0BB1C1B881900174801F0D8FF03007B6094
S11310C00BE0104B1B78DBB21A00C0231340802BBB
S11310D013D10D4B7B6000E0C0460F4A0F4BD35831
S11310E01B0F0F22134001331900786801F0BEFF73
S11310F003001A000A4B1A6000E0C046BD4602B065
S113110080BDC0460040064000127A0095080000E9
S1131110710B000000093D00007004404410000001
S113112080E0FF1F70B5184C18492200002001F020
S11311304BF8802380225B0000212000D20000F0C5
S113114027FF134C134D22002900012001F03CF825
S1131150802380225B0000212000D20000F018FFD1
S11311600D4B1B68022B0DDD0C4C290022000220C4
S113117001F02AF880238022002120005B00D200A5
S113118000F006FF70BDC046A4E1FF1F303200002E
S1131190E0E1FF1F323200002C3200001CE2FF1F8E
S11311A0F0B5D1B00A92579A0600089200220B9328
S11311B0569B079218785A1C0C92002802D1079863
S11311C051B0F0BD252833D100270C9A11000D78B9
S11311D001322B2D60D048D8202D5FD0232D5FD035
S11311E02A2D46D1089B01CB0D90002803DA4042FA
S11311F00D9001204740023115780C910893089B0B
S11312000693002310932E2D5ED10C9B1D782A2D5E
S11312104BD00A20013329003039CCB21A00092CF2
S113122075D8109C1D7844430A1910920133F2E7D3
S1131230079B0B9ADB179A4209DC03D10A9B079A96
S1131240934204D8079B013307930C9BB2E7B3681E
S1131250013BB360002B04DB33685A1C3260187006
S1131260F0E7310000F008FFECE72D2D11D0302D10
S113127018D000230A200D932B00303BD9B20C92D6
S11312800929BCD80D99157841435B180D93013297
S1131290F2E701231F4399E70223FBE70423F9E75D
S11312A00823F7E780239B00F4E7069B04330693A7
S11312B0089B1B6810930C9B5D789A1C109B002B59
S11312C027DA00230C9210936C2D09D10C9B1D7806
S11312D06C2D22D15D7860231F430C9B02330C9349
S11312E04C2D4DD0712D4BD01DDC682D4FD06A2D67
S11312F000D18AE0572D1CDC412D00D1C4E300DD70
S113130088E0002D56D10C9B013B0C93E3E0089B35
S1131310069310230C921F43D6E70C9B01330C93C6
S113132020231F43DCE7742D71D07A2D6FD0782DE4
S113133040DC2800583820283CD801F049FFFB0144
S11313403B003B003B003B003B003B003B003B00C1
S1131350A5033B0088006B037000700070003B0025
S11313606B033B003B003B003B001B010E0365028B
S11313703B003B003C013B0038033B003B002B029D
S11313800C9B1D7860231F430C9B013309E00C9BCD
S11313901D78682D07D180235B001F430C9B5D786B
S11313A002330C9304E00C9B01330C9380231F4302
S11313B0782D9FDD0D9B3A00013B089301231A40D1
S11313C010921F4247D0079B079A0B990133D217FB
S11313D0914200DDA8E004D10A9A07998A4200D913
S11313E0A2E0079301240025079B089F2693DB179F
S11313F02793013F00D49EE0089B089ADB43DB1748
S11314001340079AD318079365E040231F430C9BAE
S11314101D78BAE72B0002229343452BCAD18023BF
S1131420DB003B43FF0601D4062210920721069AF3
S11314301F0007328A4303CA002306920022049243
S113144005930023469047911A001193E5E1069B0A
S113145020CB0693AEE72024BF0500D51034079BAC
S11314602493DB172593089B013B37D50D9B002B59
S113147055DD013B389300233993079B3E93DB17DB
S11314803F933E983F99389A399B12184B410D99D6
S1131490002900DC01210798411807910B99994212
S11314A003DC18D10A99914215D900230D9A9A4266
S11314B001DD01339B1A0D9A023A9B180893B36815
S11314C0013BB360002B31DB33685A1C32601D7062
S11314D0109B002B86D1069B0893B6E60893259AA9
S11314E00B9B934204DC0CD10A9B249A934208D9A7
S11314F0B368013BB360002B0CDB33685A1C3260C9
S11315001C700120249A259B002112184B4124921F
S11315102593A8E73100200000F0AEFDF1E7002399
S1131520002438933994A8E70793C8E731002800CA
S113153000F0A2FDCCE70B9B279A934204DC0DD16B
S11315400A9B269A934209D9B368013BB360002BE6
S11315500BDB33685A1C326020221A70269A279BB0
S113156012196B412692279343E73100202000F0A3
S113157083FDF3E7069B1A1D7B0607D5069B079997
S11315801B681960C91759600692A4E7BB0604D505
S1131590069B07991B681960F6E7FB0504D5069BB3
S11315A007991B681970EFE7069B07991B683F06AC
S11315B0F1D51980E8E7069B04CB11923A93002AEF
S11315C001D18A4B1193119800F008FD0690FB0697
S11315D003D5109A904200DD06920D9B069A9B1A41
S11315E008933A0001231A400D921F4216D1202479
S11315F0BF0500D51034079B089D1A93DB171B9376
S1131600013D36D5089B089ADB43DB171340079A44
S1131610D2180792089A013AD31A08930027012492
S11316200025079B2093DB172193069B9F4240DBF9
S1131630DB43069ADB171340079AD31807933A9BA8
S113164006930D9B002B00D145E701240025079B41
S1131650089F2893DB172993013F4CD5089B089AD0
S1131660DB43DB171340079AD31807933A9B06937F
S113167031E70B9B1B9A934204DC0CD10A9B1A9A08
S1131680934208D9B368013BB360002B0CDB336889
S11316905A1C32601C7001201A9A1B9B00211218DC
S11316A04B411A921B93ABE73100200000F0E4FC9D
S11316B0F1E70B9B219A934204DC0ED10A9B209AFA
S11316C093420AD9B368013BB360002B0DDB336846
S11316D05A1C3260119AD25D1A70209A219B1219F9
S11316E06B410137209221939FE7119B3100D85D14
S11316F000F0C2FCF1E70B9B299A934204DC0DD164
S11317000A9B289A934209D9B368013BB360002B22
S11317100BDB33685A1C326020221A70289A299BEA
S113172012196B412892299396E73100202000F08A
S1131730A3FCF3E740233A001A401F421DD00722BE
S1131740069B0733934319000CC904920593069131
S113175080233A001A401F4215D06B461B8A04931B
S113176000230593224A3B0700D4224A224B1193BB
S1131770F90652D521490F404FE0069B059202CB52
S113178004910693E4E7FB05ECD56B461B7C0592BC
S11317900493E7E740233A001A401F4218D0072277
S11317A0069B0733934319000CC9049205930691D1
S11317B080233A001A401F4210D06B461B8A0493C0
S11317C0002305930E4A3B0700D40A4A0D4BCEE78B
S11317D0069B059202CB04910693E9E7FB05F1D53C
S11317E06B461B7C05920493ECE7C0463432000040
S11317F03B3200008232000049320000FFFDFFFF4F
S11318003E3200005A320000069B04CB04920022B0
S11318100693A74B0592A74A1193079B43924093C3
S1131820DB1701220A980B994193409B419CC01AF3
S1131830A1415242089009914492459255200022B8
S1131840109B48A9429350540132202AFBD1822292
S1131850D200174201D1012242926E2D00DD1BE11C
S1131860472D00DDB3E12A005123413AD340012240
S113187019001140134200D0EBE1109180233A008B
S1131880DB001A403A921F4200D1F4E10023429354
S1131890449B002B01DD013B4293459B429A002B64
S11318A002DD013B9B184293109B429C43981C19F8
S11318B000F094FB0D9B1C1B231A0D9301233B404A
S11318C03B937D4B1F4200D102E200231493DB17AC
S11318D01593439B5A1C43921D78002D00D0FAE1C6
S11318E03B9B149C002B15D120331193BF0501D5CC
S11318F010331193E3170D9F1C941D93013F00D4E3
S113190009E20D9B0D9ADB43DB171340013AE418FF
S1131910D31A0D933A9B002B00D02DE2E3171294B7
S1131920002501241393429B013B4293002B00DBCF
S11319309AE201240025129B11931E93DB171F9337
S1131940109B5F1E002B00DDADE2109B109ADB4361
S1131950DB171340119A9C1811E240233A001A40F5
S11319601F4217D00722069B0733934319000CC963
S113197004920593069180233A001A401F420FD027
S11319806B461B8A0493002305934C4A3B075FD4A0
S11319904B4A5DE0069B059202CB04910693EAE76D
S11319A0FB05F2D56B461B7C05920493EDE74023BF
S11319B03A001A401F4220D00722069B0733934364
S11319C019000CC904920593069180233A001A4029
S11319D01F4218D06B461B8A0493002305931021E1
S11319E03B0037480B40020011930F4200D114E72B
S11319F0344B1F40002311930FE7069B059202CB43
S1131A0004910693E1E7FB05E9D56B461B7C05923F
S1131A100493E4E77B061DD50722069B0733934313
S1131A2019000CC90E920F9306913B0619D56B460B
S1131A3038229B5E0E93DB170F930F9B002B18DA53
S1131A400E980F99002342428B41049205931E4A3B
S1131A5000238CE6069B04CB0E92D2170F920693BA
S1131A60E3E7FB05E9D56B4638229B181B785BB28C
S1131A70E0E70E9A0F9B04920593144ABB07E7D440
S1131A80134A7B07E4D483E710231F4200D0C6E443
S1131A901F43033B1093C2E428006F38092800D980
S1131AA0E7E001F085FBD28BE6E6E6E617E6E68B97
S1131AB05A3200003E3200000102000041320000B0
S1131AC082320000FFFDFFFF433200004532000078
S1131AD04732000000231093049B059A134300D15E
S1131AE0CCE6049C059D059B049ADB0752081A4327
S1131AF0059B32925B083393049A059B92089B07DB
S1131B001A43059B34929B08359334983599329A3D
S1131B10339B12184B4119071009084319092C90DB
S1131B202D912C982D9912184B411906100A08432F
S1131B30190A2E902F912E982F9912184B4119049F
S1131B40100C0843190C30903191309831991218C7
S1131B504B4100213C933D913C983D9912184B41D7
S1131B605907DB082B93D0080023062208432A9048
S1131B70A4185D412A982B990A22002301F0ECFA5B
S1131B80241A8D412B0722091A432B0936923793C5
S1131B900A222A9B2B9C36983799C0186141282524
S1131BA04243049B109C30339B1A3EAA521913558E
S1131BB0230001330490059110938DE700220F2038
S1131BC048A9049C059B1C4319D1109256E6280091
S1131BD0583811284DD801F0F3FAF1FF4C004C00AD
S1131BE04C004C004C004C004C004C003C004C00A1
S1131BF04C007DFF3C003C003C004C007DFF049CFD
S1131C00119B04401C5D059B54541B079C46049B7C
S1131C1001321D09059B1C0963462B43049305945B
S1131C20CFE70498084030309854059801334507AD
S1131C300498C40805982543C008049505900498A1
S1131C40059C2043EDD1109318E60023072148AAF0
S1131C50F5E745AB039344AB029342AB019343AB2B
S1131C60009328003B00589C48AA46A9A04710901E
S1131C7004E60023E7E7429B109A9B1A00D412E67D
S1131C803A9B10E6099BAB4203DC0CD1089BA342B0
S1131C9009D9B368013BB360002B14DB33685A1CC9
S1131CA0326020221A7001220023A4185D410D9B8A
S1131CB05A1E131BE6D50D9B0D99DB43DB170B4016
S1131CC0D21A0D9202E63100202000F0D5F9EAE79D
S1131CD000240025EBE7099B159A934204DC0CD100
S1131CE0089B149A934208D9B368013BB360002B54
S1131CF00CDB33685A1C32601D700121149B159C47
S1131D0000225B18544114931594E2E53100280035
S1131D1000F0B2F9F1E7099B1D9A934204DC0DD15E
S1131D20089B1C9A934209D9B368013BB360002B0A
S1131D300DDB33685A1C3260119A1A7001201C9A08
S1131D401D9B002112184B411C921D93D6E53100B6
S1131D50119800F091F9F1E748ABE85CE3173C28EF
S1131D6021D03E286AD116941793459B013B459395
S1131D70002B42DA169C0135109BAB42ECDC3B9BFA
S1131D80002B0CD0E3170D9D22942393013D00D426
S1131D90A9E00D9B0D9ADB43DB171340E418079B66
S1131DA01B19FFF730FB18941993449B013B449390
S1131DB0002B01DA189CDEE7099B199A934204DC94
S1131DC00DD1089B189A934209D9B368013BB360BB
S1131DD0002B0DDB33685A1C326030221A7001214B
S1131DE0189B199C00225B18544118931994DCE742
S1131DF03100302000F040F9F1E7099B179A934233
S1131E0004DC0DD1089B169A934209D9B368013BAF
S1131E10B360002B0DDB33685A1C326030221A7019
S1131E200121169B179C00225B18544116931794AA
S1131E309BE73100302000F01FF9F1E7099A934243
S1131E4003DB0BD1089BA34208D9B368013BB36001
S1131E50002B05DB33685A1C3260187001348AE7A2
S1131E60310000F009F9F9E7099B139A934204DC65
S1131E700DD1089B129A934209D9B368013BB36010
S1131E80002B0BDB33685A1C326030221A70129A12
S1131E90139B12196B411292139344E531003020C5
S1131EA000F0EAF8F3E7099B1F9A934204DC0ED191
S1131EB0089B1E9A93420AD9B36848AA013BB85CAE
S1131EC0B360002B0BDB33685A1C326018701E9A07
S1131ED01F9B12196B411E921F933B0031E5310089
S1131EE000F0CAF8F3E7099B239A934204DC0DD16E
S1131EF0089B229A934209D9B368013BB360002B33
S1131F000DDB33685A1C326020221A700120229A99
S1131F10239B002112184B412292239336E7310070
S1131F20202000F0A9F8F1E70EB430B594B017AB57
S1131F3020CB04003C22002105A8049301F06EF894
S1131F400A2301220893104B009507930F4B52422A
S1131F500293049B05A801930B4B0594FFF720F90A
S1131F60079B0400013B0793002B08DB0022059B21
S1131F701A70200014B030BC08BC03B0184705A97F
S1131F80002000F079F8F4E7FFFFFF7F2530000020
S1131F90F0B5C56804000120AE070CD08020800095
S1131FA0824213D08020C000824205D080204000AD
S1131FB082420BD0FF38F0BD2100012324311543A8
S1131FC0002021612160E361E560F4E7024F5E1EB9
S1131FD00120BE42F3D9EEE7FEFFFF000300032118
S1131FE010B51A000B4219D1114C13681149591834
S1131FF09943214219D0DCB2511C002C0BD0FF2490
S11320002402911C234206D0FF2109040B40591ECF
S11320108B41D318D91C0130081A05E001335C1E2A
S11320202478002CDDD1101A10BD0432DDE7C0463F
S113203080808080FFFEFEFE2022C36810B593439B
S1132040C3608269836A04009A420CD000F0F6F8F7
S1132050E268074B1A4010231343E360A36AA361A9
S11320602369E3622360E368024A1340E36010BD1E
S1132070EFCFFFFFBFBFFFFFF8B5504ACB680500A5
S11320801A400C00CA609B0602D50800FFF7D4FF73
S1132090A268E668531C0FDAB3050DD402235B4231
S11320A09B1AA36090235B023343E36023685A1CAA
S11320B022601D70E8B20AE0414A3240022A07D089
S11320C00023A36080333343E36001204042F8BD22
S11320D080213C4B090233408B420AD1002120006D
S11320E000F0DAF9E3689B0602D52000FFF7A4FFAD
S11320F0E6689023F0225B0233431201E360164248
S113210010D1606901F073F8002821D073051FD540
S113211023002433236123600123E36192235B02C0
S11321203343E36090210901226826690B4225D0DC
S1132130E36A9A4200D91300991BB34217D1731C66
S1132140E3622360E3695A1EA26023633570B1E73A
S113215080277F00380000F041F99423E2685B0295
S113216033431A4320612060E761E260DAE722002A
S1132170300000F091F80028E1D0A6E7511CE8B245
S113218021601070E26A21688A4200D91100E26974
S1132190891B22635B0504D40A2802D08A4200DD2D
S11321A088E7002322003000E6622660A36000F086
S11321B073F8002800D088E77CE7C046FFFFF7FFEC
S11321C08A10000010A00000F7B50D000190100067
S11321D0140000F013F92B78722B1CD0772B1DD030
S11321E0612B26D1144A593B0220691C03278446DB
S11321F00426012508782B2813D0622816D0E26023
S1132200019A62611B0704D502220021200000F01C
S113221043F92000FEBD00230122E5E70423022246
S1132220E2E760463A4303430131E3E732432B4399
S1132230FAE70024EDE7C0460280000070B5040010
S1132240134AE36805691A400168C06AE2608222A1
S11322501A40022A02D00120404270BDDB030CD593
S1132260814200D201008D4209D10023094AA360B2
S1132270E368E56213402560E3600020EDE7220097
S11322802800491B00F008F80028EED0E3E7C04618
S1132290FFFFF7FFFFFFFEFFF7B5D5680F0014003F
S11322A056690190EB0205D5102330001D4300F060
S11322B09BFFA061104B1D420FD03000A16900F0BC
S11322C09CFF002806DA80230120E2684042134381
S11322D0E3600FE0094B1D40E5603A0030000199CE
S11322E000F091FF4300A2695B08FB1AD318A361B5
S11322F00028E8D1FEBDC04610000200EFFFFDFF3C
S1132300F8B50027344EC21C34689508B84212D080
S113231080235B059C46002C0FD10C3000F058F94B
S1132320431C08D080239B05036045608460002F14
S113233050D130603EE00020F8BD236863452DD1C4
S1132340A1686368002909D00F6867451ED14F68EA
S11323500333FB1863608B68A360F1E7AB4220DAB8
S11323602E000A36B3422AD9802080052060032635
S11323702000B2430C3082186560A26080245B1B8D
S11323806405033B146053609160D5E7AB4213DBF3
S1132390EF1CBB420ADD07379F42E5D32700A46840
S11323A0B9E7EE1C9E4201DA0736DBE780239B0582
S11323B0236020000C30BFE72F000A37ECE79B00B6
S11323C0C01A00F005F90130B5D080239B052360C5
S11323D06560EEE7B860EDE79CE1FF1F10B5FFF71D
S11323E08FFF041E05D11722034900F00CFF00F0F3
S11323F0F7FE200010BDC0466B320000F0B5C56882
S113240004004769066989B0AB0720D02B0716D4AE
S113241000F022F8380000F0E4FE2B0502D530006D
S113242000F002FE0B4BAD0DAD059D4207D12022FD
S11324306846216A00F0E4FE684600F00BFE3C2288
S11324400021200000F0EAFD002009B0F0BD0120C9
S11324504042FAE7000080ADF8B5002812D000F041
S1132460D9F805002800F8BD38006043084BC018AF
S113247000F0D0F8002801D001256D420134A642B5
S1132480F2DCEFE7034B040005003C271E68F6E787
S1132490A4E1FF1F2C320000F7B54369C66801931D
S11324A0364B04000D0000921E420BD0019800F040
S11324B09EFE071E06D1009B012B06D0022B2DD0B9
S11324C0002B06D002273800FEBD200000F05AF889
S11324D02D18002DF6DBB30404D52368E26A9A4272
S11324E000D2E362A369AB420EDCE16A22688A424D
S11324F000D20A002169D0180091401AA84203DBD7
S1132500206B1918A94228DC20231E430023A5624E
S1132510A36063601A4B1E40E660D4E7019800F0A4
S113252063FEE268002804DA802313430127E36092
S1132530C9E7E16A2368994200D90B00A1695B18D5
S113254021695B1A920603D5A26A934200DA13004A
S1132550834200DA0300ED18BBE7EB1AB50701D597
S1132560181AA060F00703D50099521A9A1A6260EB
S1132570009AD118202321609E43CBE7030010006A
S1132580BFCFF7FFC16802008B0705D121220120CC
S11325900E4B40421A60704720230B4009030AD5B2
S11325A0002B02D0806A0138F5E793690068C018EF
S11325B01369C01AF7E7002B01D0806AEBE70368C0
S11325C0816900695B18181AE5E7C046A0E1FF1F9E
S11325D070B50D4D04002B68002B01D10B4B2B6003
S11325E003232E6803349C433419200000F036F88A
S11325F0002802D12C60300070BD0C220126044B4F
S113260076421A60F7E7C04698E1FF1F5CE2FF1FBD
S1132610A0E1FF1FC36870B503221E00040016402A
S1132620134211D09B0611D5856AFFF705FDE368B7
S1132630094A20001340E360FFF700FE0022060071
S113264029002000FFF728FF300070BD836905686A
S1132650ED180369ED1AEAE7FFCFFFFF0300044812
S1132660002803D000228342524110007047C04624
S11326705CEAFF1FC20D70B5FF23150004001D4066
S11326804C401A4208D09D4206D0CE0D32001A406A
S11326901E4201D09A4213D1FF2340001B069842E8
S11326A03FD34AD1FF2349001B06C918FE231B064A
S11326B0994242D8FF20E40FE407C00520431DE0FF
S11326C0AD188022002312060902000210430A43B7
S11326D0190000F041FD06000B1E10DA7F3DE00FEB
S11326E0190AC0070143EA05521880211B0609068E
S11326F08B4207D0FD2D0ED8DB0F981870BD803D9E
S11327004B00ECE7531C002E01D101229343FD2D15
S113271001D8181CF2E7002DF0DBFF23DB0518437A
S1132720ECE74900994202D2E00FC007E6E799427C
S113273003D180235B049842BCD20148DEE7C04643
S11327400000C07FF0B5C50DFF222C00030014402B
S11327504B40154208D0944206D0CE0D35001540AA
S1132760164201D0954206D1FF2544002D06AC4205
S113277046D92C4838E0641B80250902ED05490838
S113278002022943520801392A438A422DDA7D3450
S113279080253F271A26D80FC0012D045200531A52
S11327A000D513005A00531A00D513005A00531AC7
S11327B000D513005A00531A00D513005A00531AB7
S11327C000D513005B005A1A00D51A00930618436B
S11327D0F041BA432842E1D052008A4200DB013082
S11327E0FD2C05D8E4052018F0BD52107E34CFE747
S11327F0C00FC007002CF7DBFF23DB051843F3E70A
S11328004A00AA42B5D808438021400049048842BE
S1132810AFD3D80FC0078C42E6D3AA42ECD194427E
S1132820A7D0E1E70000C07F0A00F8B542400300EA
S11328300E00002A05DA80231B06C91800F08AF866
S1132840F8BD814205D980231B06D61803007340C6
S11328504E40D90DF40DC8B20F1BFF2803D15A0204
S11328606ED03A48ECE7874203D10028E8D018003C
S1132870E6E7802518022D063602284335432A0050
S1132880FA40801A11D5324BC018020ACB059B18A6
S1132890000601D0181CD3E72034641AA540581E42
S11328A0002DCDD101229343E1E74200460017D524
S11328B0FE2680321012CB051B180E40120601D0E2
S11328C0002EE7D12034641AA540581E002D02D1F1
S11328D0012293431800002EB2D1C00FC007AFE706
S11328E0002A30D0802780268025CC057F047603FB
S11328F0ED03BA4207D3120AB2420BD3AA420DD354
S11329005200013910E080277F02BA4215D30839FA
S1132910B24201D212010439AA4201D29200023910
S1132920802000048242EBD30239C9054C40881848
S1132930002C00DB84E7D80FD0E742021039E7E728
S1132940002FA7D18DE700207AE7C0460000C07FA2
S113295080000080F8B50C0003000A00444005D54F
S113296080231B06C918FFF75FFFF8BD814201D918
S113297013000200DD0DFF272800D10D6E1A384028
S1132980B84203D15A0205D01B48EEE7864203D170
S1132990002E2ED0181CE8E78024120224061B0205
S11329A0234314432200F2409E18B2420DD8134B25
S11329B0E805F218130AC0181206D6D12031491BB3
S11329C08C40D2D101329043CFE70136681CFF36E8
S11329D0C305720AD2183840F60503D0FF28D9D0AF
S11329E0101CC2E72031491B8C40F7D101218A43D6
S11329F0F4E7DB0FDB07CDE70000C07F8000008039
S1132A0030B5C110FF240D002405254021420AD011
S1132A10E023DB0542070B43A54209D0C82410007C
S1132A202406191930BDC90FCB0700201900F9E796
S1132A3019030A43F9D0014BF7E7C0460000F87FB9
S1132A4080B582B000AF78600A00FB1C1A707B6806
S1132A509B68032293431A007B689A607B689A6898
S1132A60FB1C1B7803210B401A437B689A60C04609
S1132A70BD4602B080BD80B582B000AF78600A0068
S1132A80FB1C1A707B681B6A032293431A007B6841
S1132A901A627B681A6AFB1C1B7803210B401A43D9
S1132AA07B681A62C046BD4602B080BD80B582B064
S1132AB000AF78600A00FB1C1A707B681B6A402216
S1132AC093431A007B681A627B681A6AFB1C1B78A2
S1132AD09B0140210B401A437B681A62C046BD46E5
S1132AE002B080BD80B582B000AF78600A00FB1CE4
S1132AF01A707B685B6A082293431A007B685A62E7
S1132B007B685A6AFB1C1B78DB0008210B401A43C4
S1132B107B685A62C046BD4602B080BD80B582B0B3
S1132B2000AF786008001100FB1C021C1A70BB1C6B
S1132B300A1C1A70FB1C1A787B689200D358FA1C82
S1132B40127820218B4319007B689200D150FB1C22
S1132B501A787B689200D158BB1C1B785B01202239
S1132B601340FA1C127819437B689200D150C04676
S1132B70BD4602B080BD80B582B000AF78600A0067
S1132B80FB1C1A707B689B680C2293431A007B68B9
S1132B909A607B689A68FB1C1B789B000C210B4095
S1132BA01A437B689A60C046BD4602B080BD80B5BA
S1132BB082B000AF78600A00FB1C1A70FB1C1A7804
S1132BC07B689200D358802213405A1E9341DBB293
S1132BD01800BD4602B080BD80B582B000AF7860F9
S1132BE008001100FB1C021C1A70BB1C0A1C1A7082
S1132BF0FB1C1A787B689200D358FA1C1278402187
S1132C008B4319007B689200D150FB1C1A787B68B7
S1132C109200D158BB1C1B789B0140221340FA1C24
S1132C20127819437B689200D150C046BD4602B069
S1132C3080BD80B582B000AF786039603B685A7857
S1132C407B6811001800FFF7FBFE3B681A797B686C
S1132C5011001800FFF70FFF3B68DA787B6811005A
S1132C601800FFF723FF3B685A797B6811001800AE
S1132C70FFF738FF3B6819783B689A797B6818003E
S1132C80FFF74CFF3B68DA797B6811001800FFF707
S1132C9072FF3B6819783B681A7A7B681800FFF763
S1132CA09BFF3B68DB681800FDF754FD3B681B7A0B
S1132CB0012B02D10F20FDF733FDC046BD4602B003
S1132CC080BD80B582B000AF786008001100FB1CA5
S1132CD0021C1A70BB1C0A1C1A707B68DB68102269
S1132CE093431A007B68DA60FB1C1A787B689200B5
S1132CF0D3581F2293431900BB1C1B781F22134077
S1132D00FA1C127819437B689200D150C046BD4624
S1132D1002B080BD80B582B000AF786008001100B9
S1132D20FB1C021C1A70BB1C0A1C1A70BB1C1B78EF
S1132D30002B0BD17B685B69FA1C1278012191404E
S1132D400A00D2431A407B685A610DE0BB1C1B7811
S1132D50012B09D17B685B69FA1C1278012191402F
S1132D600A001A437B685A61C046BD4602B080BD62
S1132D7090B585B000AFF8607A600B243B190A1C4B
S1132D801A707B681A783B191978FB681800FFF7EA
S1132D90C1FF7B681B78012B07D17B685A783B19EC
S1132DA01978FB68180000F004F8C046BD4605B069
S1132DB090BD80B582B000AF786008001100FB1CA4
S1132DC0021C1A70BB1C0A1C1A70BB1C1B78012B3A
S1132DD00AD17B681B68FA1C1278012191400A0011
S1132DE01A437B681A600EE0BB1C1B78002B0AD1C7
S1132DF07B681B68FA1C1278012191400A00D243B7
S1132E001A407B681A60C046BD4602B080BD80B5DA
S1132E1082B000AF78600A00FB1C1A707B68DB6824
S1132E20FA1C1278012191400A001A437B68DA6087
S1132E30C046BD4602B080BD80B582B000AF7860A8
S1132E4008001100FB1C021C1A70BB1C0A1C1A701F
S1132E50BB1C1B78002B2ED0FB1C1A787B689200BD
S1132E60D358FA1C1278022119437B689200D1507E
S1132E70BB1C1B78012B0CD1FB1C1A787B689200BD
S1132E80D358FA1C1278012119437B689200D1505F
S1132E901EE0BB1C1B78022B1AD1FB1C1A787B6822
S1132EA09200D358FA1C127801218B4319007B68D5
S1132EB09200D1500CE0FB1C1A787B689200D35826
S1132EC0FA1C127802218B4319007B689200D150BE
S1132ED0C046BD4602B080BD80B582B000AF786008
S1132EE008001100FB1C021C1A70BB1C0A1C1A707F
S1132EF0FB1C1A787B689200D358FA1C12780421C0
S1132F008B4319007B689200D150FB1C1A787B68B4
S1132F109200D158BB1C1B789B0004221340FA1C5E
S1132F20127819437B689200D150C046BD4602B066
S1132F3080BD80B582B000AF78600A00FB1C1A70B7
S1132F407B68A0229B58FA1C1278012191400A0048
S1132F50134001D0012300E000231800BD4602B055
S1132F6080BD80B582B000AF78600A00FB1C1A7087
S1132F70FB1C1A787B689200D358FA1C12788021C3
S1132F80490419437B689200D150C046BD4602B043
S1132F9080BD90B585B000AF786008001100FB1CBF
S1132FA0021C1A70BB1C0A1C1A700E23FB18002288
S1132FB01A800E243B191B887A68D2180D217B18BD
S1132FC012781A707B181B781800FDF7FDFE031E9B
S1132FD005D13B191A883B1901321A8003E0BB1C46
S1132FE01B78002B07D00D23FA18FB1C12781B78D2
S1132FF09A42DED100E0C0460E23FB181B8818005D
S1133000BD4605B090BD80B500AFC046BD4680BD8D
S113301010B5FEF787F8FDF7FBF910BD10B500F009
S1133020B2F810BD0020704710B5002811D08021DF
S11330300C38490501608268002A0AD013688B4263
S113304007D14368546803331B1943609368836052
S1133050F1E710BD10B50400FEF7C0FF0100200029
S113306000F0C8F810BD03000B4321D4002931D06F
S11330700122D207030901E0090112099942FBD98F
S1133080430801E0490052089942FBD900E049088D
S1133090401A07D35241FAD30146104670474908F3
S11330A04018F7D29218FAD34018014610467047D8
S11330B0CB0F00D04942021000D54042534008B51E
S11330C0FFF7D4FF0CBC521000D34042002A00D5B5
S11330D049421847F446002000F001F86047704761
S11330E000282BD0030C15D10004030E16D10002C6
S11330F0030F17D10001830F18D18000002819DBBA
S11331004000803002125218000601D101239A4374
S1133110101C704780231B05C918E6E78023DB04D5
S1133120C918E5E780239B04C918E4E780235B04FE
S1133130C918E3E780231B04C918E2E70020E8E785
S1133140C30F10B5D907002B00D040428023DB0504
S1133150C918FFF7C5FF10BD10B543435143C91843
S1133160040C130C5C43091992B2040C544380B24E
S1133170434350432204240C801861411A041B0C5D
S11331808018594110BD8446043A09D3830707D1F6
S113319009060B0A19430B0C1943043A02C0FCD26A
S11331A0043203D001700130013AFBD1604670470C
S11331B08C4671460139095C49008E44614670476A
S11331C08C46411E7144095E49008E446146704735
S11331D08C46411E7144095A49008E446146704729
S11331E0FEE7012040427047012040427047012021
S11331F040427047012040427047012040427047DE
S113320001204042704710007047FFFF0A53656E6B
S113321064203078257820746F2067657420646199
S113322074610A002020252E326600FF030000008E
S113323072007700286E756C6C2900305800307865
S11332400030002D002B002000303132333435366D
S113325037383941424344454600303132333435FE
S113326036373839616263646566002A2A2A205F2A
S1133270437379735F616C6C6F63206661696C651D
S1073280640A00FFD9
S10B32840000400155FFFFFFAB
S90300D527
